{
  "contractName": "NewCoin",
  "abi": [
    {
      "constant": false,
      "inputs": [
        {
          "name": "receiver",
          "type": "address"
        },
        {
          "name": "amount",
          "type": "uint256"
        }
      ],
      "name": "sendCoin",
      "outputs": [
        {
          "name": "sufficient",
          "type": "bool"
        }
      ],
      "payable": false,
      "stateMutability": "nonpayable",
      "type": "function"
    },
    {
      "constant": true,
      "inputs": [
        {
          "name": "addr",
          "type": "address"
        }
      ],
      "name": "getBalance",
      "outputs": [
        {
          "name": "",
          "type": "uint256"
        }
      ],
      "payable": false,
      "stateMutability": "view",
      "type": "function"
    },
    {
      "inputs": [],
      "payable": false,
      "stateMutability": "nonpayable",
      "type": "constructor"
    },
    {
      "anonymous": false,
      "inputs": [
        {
          "indexed": true,
          "name": "_from",
          "type": "address"
        },
        {
          "indexed": true,
          "name": "_to",
          "type": "address"
        },
        {
          "indexed": false,
          "name": "_value",
          "type": "uint256"
        }
      ],
      "name": "Transfer",
      "type": "event"
    }
  ],
  "bytecode": "0x6060604052341561000f57600080fd5b600160a060020a0332166000908152602081905260409020620f424090556101ce8061003c6000396000f300606060405263ffffffff7c010000000000000000000000000000000000000000000000000000000060003504166390b98a118114610047578063f8b2cb4f1461008a57600080fd5b341561005257600080fd5b61007673ffffffffffffffffffffffffffffffffffffffff600435166024356100c8565b604051901515815260200160405180910390f35b341561009557600080fd5b6100b673ffffffffffffffffffffffffffffffffffffffff6004351661017a565b60405190815260200160405180910390f35b73ffffffffffffffffffffffffffffffffffffffff3316600090815260208190526040812054829010156100fe57506000610174565b73ffffffffffffffffffffffffffffffffffffffff3381166000818152602081905260408082208054879003905592861680825290839020805486019055917fddf252ad1be2c89b69c2b068fc378daa952ba7f163c4a11628f55a4df523b3ef9085905190815260200160405180910390a35060015b92915050565b73ffffffffffffffffffffffffffffffffffffffff16600090815260208190526040902054905600a165627a7a72305820baff530633549eee497f5686d3ef4506eddc43da85dcf24174edc3df74e83f0a0029",
  "source": "pragma solidity ^0.4.17;\n\n// This is just a simple example of a coin-like contract.\n// It is not standards compatible and cannot be expected to talk to other\n// coin/token contracts. If you want to create a standards-compliant\n// token, see: https://github.com/ConsenSys/Tokens. Cheers!\n\ncontract NewCoin {\n\tmapping (address => uint) balances;\n\n\tevent Transfer(address indexed _from, address indexed _to, uint256 _value);\n\n\tfunction NewCoin() public {\n\t\tbalances[tx.origin] = 1000000;\n\t}\n\n\tfunction sendCoin(address receiver, uint amount) public returns(bool sufficient) {\n\t\tif (balances[msg.sender] < amount) \n\t\t\treturn false;\n\t\tbalances[msg.sender] -= amount;\n\t\tbalances[receiver] += amount;\n\t\tTransfer(msg.sender, receiver, amount);\n\t\treturn true;\n\t}\n\n\tfunction getBalance(address addr) public view returns(uint) {\n\t\treturn balances[addr];\n\t}\n}\n",
  "sourcePath": "/Users/veysel/dev/hack@brown/new-world/contracts/NewCoin.sol",
  "schemaVersion": "1.0.0",
  "updatedAt": "2018-01-27T22:42:11.150Z"
}