{
  "contractName": "Voting",
  "abi": [
    {
      "constant": true,
      "inputs": [
        {
          "name": "candidate",
          "type": "bytes32"
        }
      ],
      "name": "totalVotesFor",
      "outputs": [
        {
          "name": "",
          "type": "uint8"
        }
      ],
      "payable": false,
      "stateMutability": "view",
      "type": "function"
    },
    {
      "constant": true,
      "inputs": [
        {
          "name": "candidate",
          "type": "bytes32"
        }
      ],
      "name": "validCandidate",
      "outputs": [
        {
          "name": "",
          "type": "bool"
        }
      ],
      "payable": false,
      "stateMutability": "view",
      "type": "function"
    },
    {
      "constant": true,
      "inputs": [
        {
          "name": "",
          "type": "bytes32"
        }
      ],
      "name": "votesReceived",
      "outputs": [
        {
          "name": "",
          "type": "uint8"
        }
      ],
      "payable": false,
      "stateMutability": "view",
      "type": "function"
    },
    {
      "constant": true,
      "inputs": [
        {
          "name": "",
          "type": "uint256"
        }
      ],
      "name": "candidateList",
      "outputs": [
        {
          "name": "",
          "type": "bytes32"
        }
      ],
      "payable": false,
      "stateMutability": "view",
      "type": "function"
    },
    {
      "constant": false,
      "inputs": [
        {
          "name": "candidate",
          "type": "bytes32"
        }
      ],
      "name": "voteForCandidate",
      "outputs": [],
      "payable": false,
      "stateMutability": "nonpayable",
      "type": "function"
    },
    {
      "inputs": [
        {
          "name": "candidateNames",
          "type": "bytes32[]"
        }
      ],
      "payable": false,
      "stateMutability": "nonpayable",
      "type": "constructor"
    }
  ],
  "bytecode": "0x6060604052341561000f57600080fd5b6040516102e23803806102e2833981016040528080519091019050600181805161003d929160200190610044565b50506100ae565b828054828255906000526020600020908101928215610081579160200282015b828111156100815782518255602090920191600190910190610064565b5061008d929150610091565b5090565b6100ab91905b8082111561008d5760008155600101610097565b90565b610225806100bd6000396000f300606060405263ffffffff7c01000000000000000000000000000000000000000000000000000000006000350416632f265cf78114610068578063392e6678146100945780637021939f146100be578063b13c744b146100d4578063cc9ab267146100fc57600080fd5b341561007357600080fd5b61007e600435610114565b60405160ff909116815260200160405180910390f35b341561009f57600080fd5b6100aa600435610140565b604051901515815260200160405180910390f35b34156100c957600080fd5b61007e60043561018d565b34156100df57600080fd5b6100ea6004356101a2565b60405190815260200160405180910390f35b341561010757600080fd5b6101126004356101c1565b005b600061011f82610140565b151561012a57600080fd5b5060009081526020819052604090205460ff1690565b6000805b60015481101561018257600180548491908390811061015f57fe5b600091825260209091200154141561017a5760019150610187565b600101610144565b600091505b50919050565b60006020819052908152604090205460ff1681565b60018054829081106101b057fe5b600091825260209091200154905081565b6101ca81610140565b15156101d557600080fd5b6000908152602081905260409020805460ff8082166001011660ff199091161790555600a165627a7a723058200816cfdfaf81942fa93dc82c4da098c9e293c94fdfbe9aaa3d18d1a0223ec2280029",
  "source": "pragma solidity ^0.4.17;\n\ncontract Voting {\n\n  mapping (bytes32 => uint8) public votesReceived;\n  bytes32[] public candidateList;\n\n  function Voting(bytes32[] candidateNames) public {\n    candidateList = candidateNames;\n  }\n\n  function totalVotesFor(bytes32 candidate) view public returns (uint8) {\n    require(validCandidate(candidate));\n    return votesReceived[candidate];\n  }\n\n  function voteForCandidate(bytes32 candidate) public {\n    require(validCandidate(candidate));\n    votesReceived[candidate]  += 1;\n  }\n\n  function validCandidate(bytes32 candidate) view public returns (bool) {\n    for(uint i = 0; i < candidateList.length; i++) {\n      if (candidateList[i] == candidate) {\n        return true;\n      }\n    }\n    return false;\n   }\n}\n",
  "sourcePath": "/Users/veysel/dev/hack@brown/new-world/contracts/Voting.sol",
  "schemaVersion": "1.0.0",
  "updatedAt": "2018-01-27T22:42:11.145Z"
}